:10088C00202C08000000000005000A000F001400D6
:10089C0019001E00230028002D002D002800230025
:0F08AC001E00190014000F000A000500000000D4
:1008BC00E4F590E4FFFEEF25E02408F808E6F59057
:0D08CC000FBF00010EEF64164E70EB80E6CA
:03000000020800F3
:0C080000787FE4F6D8FD758133020847CC
:10080C000208BCE493A3F8E493A34003F68001F23E
:10081C0008DFF48029E493A3F85407240CC8C333ED
:10082C00C4540F4420C8834004F456800146F6DFBC
:10083C00E4800B010204081020408090088CE47EB8
:10084C00019360BCA3FF543F30E509541FFEE493B1
:10085C00A360010ECF54C025E060A840B8E493A378
:10086C00FAE493A3F8E493A3C8C582C8CAC583CAA3
:10087C00F0A3C8C582C8CAC583CADFE9DEE780BE5B
:0108BB00003C
:00000001FF
